:020000040000FA
:08000000803102288731FD2F39
:100F600016302100970008008731C7278731873165
:100F7000BD2787318731B0270800703021009900E4
:100F800098012200960121001A1B0800C32F22009D
:100F900090018C018D018E01083021009000FF30FE
:100FA0008C007F308D00FF308E003F3023008D009D
:100FB0003F308C00240090018D0121009517220004
:100FC0009D0108008731B4278731031022008D1F4F
:100FD0000314031CEE2F22008D17F02F22008D1317
:100FE0000930F1001E30F000E430890BF52FF00BD2
:100FF000F52FF10BF52F0032E52F20008731E22F7E
:020000040001F9
:04000E00E4FFFFFF0D
:00000001FF
