:020000040000FA
:08000000803102288731FD2F39
:100F4E0016302100970008008731BE278731873180
:100F5E00B42787318731A727080070302100990008
:100F6E0098012200960121001A1B0800BA2F2200B8
:100F7E0090018C018D018E01083021009000FF3010
:100F8E008C007F308D00FF308E003F3023008D00AF
:100F9E003C308C00240090018D0121009517220019
:100FAE009D0108008731AB27873120000C18EC2FEC
:100FBE0022008D170D30F1002D30F000D830890B46
:100FCE00E62FF00BE62FF10BE62F20008C18DC2F0E
:100FDE0022008D130D30F1002D30F000D830890B2A
:100FEE00F62FF00BF62FF10BF62FDC2F20008731AA
:020FFE00D92FE9
:020000040001F9
:04000E00E4FFFFFF0D
:00000001FF
